{
  "contractName": "SecureTransfer",
  "abi": [
    {
      "inputs": [],
      "payable": false,
      "stateMutability": "nonpayable",
      "type": "constructor"
    },
    {
      "constant": true,
      "inputs": [],
      "name": "bar",
      "outputs": [
        {
          "internalType": "uint256",
          "name": "",
          "type": "uint256"
        }
      ],
      "payable": false,
      "stateMutability": "view",
      "type": "function"
    },
    {
      "constant": true,
      "inputs": [],
      "name": "buyer",
      "outputs": [
        {
          "internalType": "address",
          "name": "",
          "type": "address"
        }
      ],
      "payable": false,
      "stateMutability": "view",
      "type": "function"
    },
    {
      "constant": true,
      "inputs": [],
      "name": "offer",
      "outputs": [
        {
          "internalType": "uint256",
          "name": "",
          "type": "uint256"
        }
      ],
      "payable": false,
      "stateMutability": "view",
      "type": "function"
    },
    {
      "constant": true,
      "inputs": [],
      "name": "price",
      "outputs": [
        {
          "internalType": "uint256",
          "name": "",
          "type": "uint256"
        }
      ],
      "payable": false,
      "stateMutability": "view",
      "type": "function"
    },
    {
      "constant": true,
      "inputs": [],
      "name": "seller",
      "outputs": [
        {
          "internalType": "address payable",
          "name": "",
          "type": "address"
        }
      ],
      "payable": false,
      "stateMutability": "view",
      "type": "function"
    },
    {
      "constant": true,
      "inputs": [],
      "name": "sellerAccept",
      "outputs": [
        {
          "internalType": "bool",
          "name": "",
          "type": "bool"
        }
      ],
      "payable": false,
      "stateMutability": "view",
      "type": "function"
    },
    {
      "constant": false,
      "inputs": [
        {
          "internalType": "uint256",
          "name": "_price",
          "type": "uint256"
        }
      ],
      "name": "setPrice",
      "outputs": [],
      "payable": false,
      "stateMutability": "nonpayable",
      "type": "function"
    },
    {
      "constant": false,
      "inputs": [
        {
          "internalType": "uint256",
          "name": "amt",
          "type": "uint256"
        }
      ],
      "name": "makeDeposit",
      "outputs": [],
      "payable": true,
      "stateMutability": "payable",
      "type": "function"
    },
    {
      "constant": false,
      "inputs": [],
      "name": "acceptOffer",
      "outputs": [],
      "payable": false,
      "stateMutability": "nonpayable",
      "type": "function"
    },
    {
      "constant": true,
      "inputs": [],
      "name": "foo",
      "outputs": [
        {
          "internalType": "uint256",
          "name": "",
          "type": "uint256"
        }
      ],
      "payable": false,
      "stateMutability": "view",
      "type": "function"
    },
    {
      "constant": false,
      "inputs": [],
      "name": "endTransactionBuyer",
      "outputs": [],
      "payable": false,
      "stateMutability": "nonpayable",
      "type": "function"
    },
    {
      "constant": false,
      "inputs": [
        {
          "internalType": "address payable",
          "name": "beneficiary",
          "type": "address"
        }
      ],
      "name": "endTransaction",
      "outputs": [],
      "payable": false,
      "stateMutability": "nonpayable",
      "type": "function"
    }
  ],
  "bytecode": "0x608060405234801561001057600080fd5b5060646002819055506000808190555060006001819055506000600460146101000a81548160ff02191690831515021790555033600360006101000a81548173ffffffffffffffffffffffffffffffffffffffff021916908373ffffffffffffffffffffffffffffffffffffffff160217905550610cd2806100936000396000f3fe6080604052600436106100a75760003560e01c80639a87f136116100645780639a87f13614610243578063a035b1fe1461025a578063c028df0614610285578063c2985578146102b0578063eb62df61146102db578063febb0f7e146102f2576100a7565b8063059a500c146100ac57806308551a53146100da5780637150d8ae146101315780638d6afede146101885780638e02e1ae146101b757806391b7f5ed14610208575b600080fd5b6100d8600480360360208110156100c257600080fd5b810190808035906020019092919050505061031d565b005b3480156100e657600080fd5b506100ef610503565b604051808273ffffffffffffffffffffffffffffffffffffffff1673ffffffffffffffffffffffffffffffffffffffff16815260200191505060405180910390f35b34801561013d57600080fd5b50610146610529565b604051808273ffffffffffffffffffffffffffffffffffffffff1673ffffffffffffffffffffffffffffffffffffffff16815260200191505060405180910390f35b34801561019457600080fd5b5061019d61054f565b604051808215151515815260200191505060405180910390f35b3480156101c357600080fd5b50610206600480360360208110156101da57600080fd5b81019080803573ffffffffffffffffffffffffffffffffffffffff169060200190929190505050610562565b005b34801561021457600080fd5b506102416004803603602081101561022b57600080fd5b81019080803590602001909291905050506106d6565b005b34801561024f57600080fd5b506102586108da565b005b34801561026657600080fd5b5061026f610a6f565b6040518082815260200191505060405180910390f35b34801561029157600080fd5b5061029a610a75565b6040518082815260200191505060405180910390f35b3480156102bc57600080fd5b506102c5610a7b565b6040518082815260200191505060405180910390f35b3480156102e757600080fd5b506102f0610a85565b005b3480156102fe57600080fd5b50610307610bcf565b6040518082815260200191505060405180910390f35b600073ffffffffffffffffffffffffffffffffffffffff163373ffffffffffffffffffffffffffffffffffffffff1614156103c0576040517f08c379a00000000000000000000000000000000000000000000000000000000081526004018080602001828103825260168152602001807f696e76616c69646520627579657220616464726573730000000000000000000081525060200191505060405180910390fd5b600080541180156103d357506000548110155b80156103e0575060015481115b610452576040517f08c379a00000000000000000000000000000000000000000000000000000000081526004018080602001828103825260138152602001807f616d6f756e7420697320746f6f20736d616c6c0000000000000000000000000081525060200191505060405180910390fd5b600460149054906101000a900460ff16156104b8576040517f08c379a0000000000000000000000000000000000000000000000000000000008152600401808060200182810382526022815260200180610c7c6022913960400191505060405180910390fd5b33600460006101000a81548173ffffffffffffffffffffffffffffffffffffffff021916908373ffffffffffffffffffffffffffffffffffffffff1602179055508060018190555050565b600360009054906101000a900473ffffffffffffffffffffffffffffffffffffffff1681565b600460009054906101000a900473ffffffffffffffffffffffffffffffffffffffff1681565b600460149054906101000a900460ff1681565b600360009054906101000a900473ffffffffffffffffffffffffffffffffffffffff1673ffffffffffffffffffffffffffffffffffffffff163373ffffffffffffffffffffffffffffffffffffffff1614610625576040517f08c379a00000000000000000000000000000000000000000000000000000000081526004018080602001828103825260188152602001807f6f6e6c792073656c6c65722063616e207573652074686973000000000000000081525060200191505060405180910390fd5b600460149054906101000a900460ff1661068a576040517f08c379a0000000000000000000000000000000000000000000000000000000008152600401808060200182810382526024815260200180610c586024913960400191505060405180910390fd5b8073ffffffffffffffffffffffffffffffffffffffff166108fc6001549081150290604051600060405180830381858888f193505050501580156106d2573d6000803e3d6000fd5b5050565b600360009054906101000a900473ffffffffffffffffffffffffffffffffffffffff1673ffffffffffffffffffffffffffffffffffffffff163373ffffffffffffffffffffffffffffffffffffffff1614610799576040517f08c379a000000000000000000000000000000000000000000000000000000000815260040180806020018281038252601f8152602001807f70726963652063616e206f6e6c79206265207365742062792073656c6c65720081525060200191505060405180910390fd5b6000811161080f576040517f08c379a000000000000000000000000000000000000000000000000000000000815260040180806020018281038252601d8152602001807f70726963652073686f756c64206265206c6172676572207468616e203000000081525060200191505060405180910390fd5b600460149054906101000a900460ff1615610875576040517f08c379a0000000000000000000000000000000000000000000000000000000008152600401808060200182810382526022815260200180610c106022913960400191505060405180910390fd5b6000600154146108d0576040517f08c379a000000000000000000000000000000000000000000000000000000000815260040180806020018281038252603a815260200180610bd6603a913960400191505060405180910390fd5b8060008190555050565b600460009054906101000a900473ffffffffffffffffffffffffffffffffffffffff1673ffffffffffffffffffffffffffffffffffffffff163373ffffffffffffffffffffffffffffffffffffffff161461099d576040517f08c379a00000000000000000000000000000000000000000000000000000000081526004018080602001828103825260178152602001807f6f6e6c792062757965722063616e20757365207468697300000000000000000081525060200191505060405180910390fd5b600460149054906101000a900460ff16610a02576040517f08c379a0000000000000000000000000000000000000000000000000000000008152600401808060200182810382526024815260200180610c586024913960400191505060405180910390fd5b600360009054906101000a900473ffffffffffffffffffffffffffffffffffffffff1673ffffffffffffffffffffffffffffffffffffffff166108fc6001549081150290604051600060405180830381858888f19350505050158015610a6c573d6000803e3d6000fd5b50565b60005481565b60015481565b6000600254905090565b600360009054906101000a900473ffffffffffffffffffffffffffffffffffffffff1673ffffffffffffffffffffffffffffffffffffffff163373ffffffffffffffffffffffffffffffffffffffff1614610b48576040517f08c379a000000000000000000000000000000000000000000000000000000000815260040180806020018281038252601f8152602001807f6f6e6c792073656c6c65722063616e2061636365707420616e206f666665720081525060200191505060405180910390fd5b60008054118015610b5d575060005460015410155b610bb2576040517f08c379a0000000000000000000000000000000000000000000000000000000008152600401808060200182810382526026815260200180610c326026913960400191505060405180910390fd5b6001600460146101000a81548160ff021916908315150217905550565b6002548156fe70726963652063616e2774206265206368616e676564207768656e20616e206f666665722068617320616c7265616479206265656e206d616465616e206f666665722068617320616c7265616479206265656e20616363657074656463616e277420616363657074206f666665722062656c6f7720696e697469616c20707269636573656c6c65722068617320746f2061636365707420746865206f66666572206669727374416e206f666665722068617320616c7265616479206265656e206163636570746564a265627a7a72315820fe69cec9810eba5a79210c72d9ea28b8b220219694b0c37c297690636f26fe4c64736f6c634300050c0032",
  "source": "pragma solidity >=0.4.21 <0.6.0;\n\ncontract SecureTransfer {\n\n    uint public price;\n    uint public offer;\n    uint public bar;\n    address payable public seller;\n    address public buyer;\n    bool public sellerAccept;\n\n    constructor() public {\n        bar = 100;\n        price = 0;\n        offer = 0;\n        sellerAccept = false;\n        seller = msg.sender;\n    }\n\n    function setPrice(uint _price) public {\n        require(msg.sender == seller, \"price can only be set by seller\");\n        require(_price > 0, \"price should be larger than 0\");\n        require(!sellerAccept, \"an offer has already been accepted\");\n        require(offer == 0, \"price can't be changed when an offer has already been made\");\n        price = _price;\n    }\n\n    function makeDeposit(uint amt) public payable {\n        require(msg.sender != address(0), \"invalide buyer address\");\n        require(price > 0 && amt >= price && amt > offer, \"amount is too small\");\n        require(!sellerAccept, \"An offer has already been accepted\");\n        buyer = msg.sender;\n        offer = amt;\n    }\n\n    function acceptOffer() public {\n        require(msg.sender == seller, \"only seller can accept an offer\");\n        require(price > 0 && offer >= price, \"can't accept offer below initial price\");\n        sellerAccept = true;\n    }\n\n    function foo() public view returns (uint) {\n        // if (sellerAccept) {\n        //     return 10;\n        // }\n        return bar;\n    }\n\n    function endTransactionBuyer(/* address payable beneficiary */) public {\n        require(msg.sender == buyer, \"only buyer can use this\");\n        // require(seller == beneficiary, \"beneficiary has to be == seller\");\n        require(sellerAccept, \"seller has to accept the offer first\");\n\n        seller.transfer(offer);\n    }\n\n    function endTransaction(address payable beneficiary) public {\n        require(msg.sender == seller, \"only seller can use this\");\n        require(sellerAccept, \"seller has to accept the offer first\");\n        //require(enough time has passed, \"has to wait longer\");\n        beneficiary.transfer(offer);\n    }\n}",
  "sourcePath": "/Users/sebastien/Documents/USI/Autumn19/DistributedSystems/DS-Solidity/sweet-vue/contracts/SecureTransfer.sol",
  "compiler": {
    "name": "solc",
    "version": "0.5.12+commit.7709ece9.Emscripten.clang"
  },
  "schemaVersion": "3.0.19",
  "updatedAt": "2019-12-16T08:12:27.922Z",
  "networkType": "ethereum",
  "devdoc": {
    "methods": {}
  },
  "userdoc": {
    "methods": {}
  }
}