{
  "contractName": "SecureTransfer",
  "abi": [
    {
      "inputs": [],
      "payable": false,
      "stateMutability": "nonpayable",
      "type": "constructor"
    },
    {
      "constant": true,
      "inputs": [],
      "name": "buyer",
      "outputs": [
        {
          "internalType": "address",
          "name": "",
          "type": "address"
        }
      ],
      "payable": false,
      "stateMutability": "view",
      "type": "function"
    },
    {
      "constant": true,
      "inputs": [],
      "name": "offer",
      "outputs": [
        {
          "internalType": "uint256",
          "name": "",
          "type": "uint256"
        }
      ],
      "payable": false,
      "stateMutability": "view",
      "type": "function"
    },
    {
      "constant": true,
      "inputs": [],
      "name": "price",
      "outputs": [
        {
          "internalType": "uint256",
          "name": "",
          "type": "uint256"
        }
      ],
      "payable": false,
      "stateMutability": "view",
      "type": "function"
    },
    {
      "constant": true,
      "inputs": [],
      "name": "seller",
      "outputs": [
        {
          "internalType": "address",
          "name": "",
          "type": "address"
        }
      ],
      "payable": false,
      "stateMutability": "view",
      "type": "function"
    },
    {
      "constant": true,
      "inputs": [],
      "name": "sellerAccept",
      "outputs": [
        {
          "internalType": "bool",
          "name": "",
          "type": "bool"
        }
      ],
      "payable": false,
      "stateMutability": "view",
      "type": "function"
    },
    {
      "constant": false,
      "inputs": [
        {
          "internalType": "uint256",
          "name": "_price",
          "type": "uint256"
        }
      ],
      "name": "setPrice",
      "outputs": [],
      "payable": false,
      "stateMutability": "nonpayable",
      "type": "function"
    },
    {
      "constant": false,
      "inputs": [
        {
          "internalType": "address",
          "name": "_buyer",
          "type": "address"
        }
      ],
      "name": "makeDeposit",
      "outputs": [],
      "payable": true,
      "stateMutability": "payable",
      "type": "function"
    },
    {
      "constant": false,
      "inputs": [],
      "name": "acceptOffer",
      "outputs": [],
      "payable": false,
      "stateMutability": "nonpayable",
      "type": "function"
    },
    {
      "constant": false,
      "inputs": [
        {
          "internalType": "address payable",
          "name": "beneficiary",
          "type": "address"
        }
      ],
      "name": "endTransactionBuyer",
      "outputs": [],
      "payable": false,
      "stateMutability": "nonpayable",
      "type": "function"
    },
    {
      "constant": false,
      "inputs": [
        {
          "internalType": "address payable",
          "name": "beneficiary",
          "type": "address"
        }
      ],
      "name": "endTransaction",
      "outputs": [],
      "payable": false,
      "stateMutability": "nonpayable",
      "type": "function"
    }
  ],
  "bytecode": "0x608060405234801561001057600080fd5b506000808190555060006001819055506000600360146101000a81548160ff02191690831515021790555033600260006101000a81548173ffffffffffffffffffffffffffffffffffffffff021916908373ffffffffffffffffffffffffffffffffffffffff160217905550610ba18061008b6000396000f3fe6080604052600436106100915760003560e01c806391b7f5ed1161005957806391b7f5ed14610215578063a035b1fe14610250578063c028df061461027b578063ea727df4146102a6578063eb62df61146102ea57610091565b806308551a5314610096578063114de63d146100ed5780637150d8ae1461013e5780638d6afede146101955780638e02e1ae146101c4575b600080fd5b3480156100a257600080fd5b506100ab610301565b604051808273ffffffffffffffffffffffffffffffffffffffff1673ffffffffffffffffffffffffffffffffffffffff16815260200191505060405180910390f35b3480156100f957600080fd5b5061013c6004803603602081101561011057600080fd5b81019080803573ffffffffffffffffffffffffffffffffffffffff169060200190929190505050610327565b005b34801561014a57600080fd5b5061015361050c565b604051808273ffffffffffffffffffffffffffffffffffffffff1673ffffffffffffffffffffffffffffffffffffffff16815260200191505060405180910390f35b3480156101a157600080fd5b506101aa610532565b604051808215151515815260200191505060405180910390f35b3480156101d057600080fd5b50610213600480360360208110156101e757600080fd5b81019080803573ffffffffffffffffffffffffffffffffffffffff169060200190929190505050610545565b005b34801561022157600080fd5b5061024e6004803603602081101561023857600080fd5b810190808035906020019092919050505061068c565b005b34801561025c57600080fd5b506102656107eb565b6040518082815260200191505060405180910390f35b34801561028757600080fd5b506102906107f1565b6040518082815260200191505060405180910390f35b6102e8600480360360208110156102bc57600080fd5b81019080803573ffffffffffffffffffffffffffffffffffffffff1690602001909291905050506107f7565b005b3480156102f657600080fd5b506102ff6109dd565b005b600260009054906101000a900473ffffffffffffffffffffffffffffffffffffffff1681565b600360009054906101000a900473ffffffffffffffffffffffffffffffffffffffff1673ffffffffffffffffffffffffffffffffffffffff163373ffffffffffffffffffffffffffffffffffffffff16146103c5576040517f08c379a0000000000000000000000000000000000000000000000000000000008152600401808060200182810382526000815260200160200191505060405180910390fd5b8073ffffffffffffffffffffffffffffffffffffffff16600260009054906101000a900473ffffffffffffffffffffffffffffffffffffffff1673ffffffffffffffffffffffffffffffffffffffff1614610463576040517f08c379a0000000000000000000000000000000000000000000000000000000008152600401808060200182810382526000815260200160200191505060405180910390fd5b600360149054906101000a900460ff166104c0576040517f08c379a0000000000000000000000000000000000000000000000000000000008152600401808060200182810382526000815260200160200191505060405180910390fd5b8073ffffffffffffffffffffffffffffffffffffffff166108fc6001549081150290604051600060405180830381858888f19350505050158015610508573d6000803e3d6000fd5b5050565b600360009054906101000a900473ffffffffffffffffffffffffffffffffffffffff1681565b600360149054906101000a900460ff1681565b600260009054906101000a900473ffffffffffffffffffffffffffffffffffffffff1673ffffffffffffffffffffffffffffffffffffffff163373ffffffffffffffffffffffffffffffffffffffff16146105e3576040517f08c379a0000000000000000000000000000000000000000000000000000000008152600401808060200182810382526000815260200160200191505060405180910390fd5b600360149054906101000a900460ff16610640576040517f08c379a0000000000000000000000000000000000000000000000000000000008152600401808060200182810382526000815260200160200191505060405180910390fd5b8073ffffffffffffffffffffffffffffffffffffffff166108fc6001549081150290604051600060405180830381858888f19350505050158015610688573d6000803e3d6000fd5b5050565b600260009054906101000a900473ffffffffffffffffffffffffffffffffffffffff1673ffffffffffffffffffffffffffffffffffffffff163373ffffffffffffffffffffffffffffffffffffffff161461072a576040517f08c379a0000000000000000000000000000000000000000000000000000000008152600401808060200182810382526000815260200160200191505060405180910390fd5b6000811161077b576040517f08c379a0000000000000000000000000000000000000000000000000000000008152600401808060200182810382526000815260200160200191505060405180910390fd5b600360149054906101000a900460ff16156107e1576040517f08c379a0000000000000000000000000000000000000000000000000000000008152600401808060200182810382526022815260200180610b036022913960400191505060405180910390fd5b8060008190555050565b60005481565b60015481565b600073ffffffffffffffffffffffffffffffffffffffff168173ffffffffffffffffffffffffffffffffffffffff16141561089a576040517f08c379a00000000000000000000000000000000000000000000000000000000081526004018080602001828103825260168152602001807f696e76616c69646520627579657220616464726573730000000000000000000081525060200191505060405180910390fd5b600080541180156108ad57506000543410155b80156108ba575060015434115b61092c576040517f08c379a00000000000000000000000000000000000000000000000000000000081526004018080602001828103825260138152602001807f616d6f756e7420697320746f6f20736d616c6c0000000000000000000000000081525060200191505060405180910390fd5b600360149054906101000a900460ff1615610992576040517f08c379a0000000000000000000000000000000000000000000000000000000008152600401808060200182810382526022815260200180610b4b6022913960400191505060405180910390fd5b80600360006101000a81548173ffffffffffffffffffffffffffffffffffffffff021916908373ffffffffffffffffffffffffffffffffffffffff1602179055503460018190555050565b600260009054906101000a900473ffffffffffffffffffffffffffffffffffffffff1673ffffffffffffffffffffffffffffffffffffffff163373ffffffffffffffffffffffffffffffffffffffff1614610a7b576040517f08c379a0000000000000000000000000000000000000000000000000000000008152600401808060200182810382526000815260200160200191505060405180910390fd5b60008054118015610a90575060005460015410155b610ae5576040517f08c379a0000000000000000000000000000000000000000000000000000000008152600401808060200182810382526026815260200180610b256026913960400191505060405180910390fd5b6001600360146101000a81548160ff02191690831515021790555056fe616e206f666665722068617320616c7265616479206265656e20616363657074656463616e277420616363657074206f666665722062656c6f7720696e697469616c207072696365416e206f666665722068617320616c7265616479206265656e206163636570746564a265627a7a72315820f945bf944ebdb8868c3c860106e3b1108a6c095c97f135c580d203d68277843064736f6c634300050c0032",
  "source": "pragma solidity ^0.5.8;\n\ncontract SecureTransfer {\n\n    uint public price;\n    uint public offer;\n    address public seller;\n    address public buyer;\n    bool public sellerAccept;\n\n    constructor() public {\n        price = 0;\n        offer = 0;\n        sellerAccept = false;\n        seller = msg.sender;\n    }\n\n    function setPrice(uint _price) public {\n        require(msg.sender == seller, \"\");\n        require(_price > 0, \"\");\n        require(!sellerAccept, \"an offer has already been accepted\");\n        price = _price;\n    }\n\n    function makeDeposit(address _buyer) public payable {\n        require(_buyer != address(0), \"invalide buyer address\");\n        require(price > 0 && msg.value >= price && msg.value > offer, \"amount is too small\");\n        require(!sellerAccept, \"An offer has already been accepted\");\n        buyer = _buyer;\n        offer = msg.value;\n    }\n\n    function acceptOffer() public {\n        require(msg.sender == seller, \"\");\n        require(price > 0 && offer >= price, \"can't accept offer below initial price\");\n        sellerAccept = true;\n    }\n\n    function endTransactionBuyer(address payable beneficiary) public {\n        require(msg.sender == buyer, \"\");\n        require(seller == beneficiary, \"\");\n        require(sellerAccept, \"\");\n\n        beneficiary.transfer(offer);\n    }\n\n    function endTransaction(address payable beneficiary) public {\n        require(msg.sender == seller, \"\");\n        require(sellerAccept, \"\");\n        //require(enough time has passed);\n        beneficiary.transfer(offer);\n    }\n\n    // function checkDeposit() public view returns (uint) {\n    //     return offer;\n    // }\n\n    // function checkBuyer() public view returns (address) {\n    //     return buyer;\n    // }\n}",
  "sourcePath": "/Users/sebastien/Documents/USI/Autumn19/DistributedSystems/DS-Solidity/sweet-vue/contracts/SecureTransfer.sol",
  "compiler": {
    "name": "solc",
    "version": "0.5.12+commit.7709ece9.Emscripten.clang"
  },
  "schemaVersion": "3.0.19",
  "updatedAt": "2019-12-13T15:05:43.715Z",
  "networkType": "ethereum",
  "devdoc": {
    "methods": {}
  },
  "userdoc": {
    "methods": {}
  }
}