{
  "contractName": "SecureTransfer",
  "abi": [
    {
      "inputs": [
        {
          "internalType": "uint256",
          "name": "_price",
          "type": "uint256"
        }
      ],
      "payable": false,
      "stateMutability": "nonpayable",
      "type": "constructor"
    },
    {
      "constant": true,
      "inputs": [],
      "name": "price",
      "outputs": [
        {
          "internalType": "uint256",
          "name": "",
          "type": "uint256"
        }
      ],
      "payable": false,
      "stateMutability": "view",
      "type": "function"
    },
    {
      "constant": false,
      "inputs": [
        {
          "internalType": "address",
          "name": "_buyer",
          "type": "address"
        }
      ],
      "name": "makeDeposit",
      "outputs": [],
      "payable": true,
      "stateMutability": "payable",
      "type": "function"
    },
    {
      "constant": false,
      "inputs": [],
      "name": "acceptOffer",
      "outputs": [],
      "payable": false,
      "stateMutability": "nonpayable",
      "type": "function"
    },
    {
      "constant": false,
      "inputs": [
        {
          "internalType": "address payable",
          "name": "beneficiary",
          "type": "address"
        }
      ],
      "name": "endTransactionBuyer",
      "outputs": [],
      "payable": false,
      "stateMutability": "nonpayable",
      "type": "function"
    },
    {
      "constant": false,
      "inputs": [
        {
          "internalType": "address payable",
          "name": "beneficiary",
          "type": "address"
        }
      ],
      "name": "endTransaction",
      "outputs": [],
      "payable": false,
      "stateMutability": "nonpayable",
      "type": "function"
    },
    {
      "constant": true,
      "inputs": [],
      "name": "checkDeposit",
      "outputs": [
        {
          "internalType": "uint256",
          "name": "",
          "type": "uint256"
        }
      ],
      "payable": false,
      "stateMutability": "view",
      "type": "function"
    },
    {
      "constant": true,
      "inputs": [],
      "name": "checkBuyer",
      "outputs": [
        {
          "internalType": "address",
          "name": "",
          "type": "address"
        }
      ],
      "payable": false,
      "stateMutability": "view",
      "type": "function"
    }
  ],
  "bytecode": "0x608060405234801561001057600080fd5b5060405161087f38038061087f8339818101604052602081101561003357600080fd5b81019080805190602001909291905050508060008190555060006001819055506000600360146101000a81548160ff02191690831515021790555033600260006101000a81548173ffffffffffffffffffffffffffffffffffffffff021916908373ffffffffffffffffffffffffffffffffffffffff160217905550506107c0806100bf6000396000f3fe6080604052600436106100705760003560e01c8063a035b1fe1161004e578063a035b1fe14610142578063e98741d11461016d578063ea727df4146101c4578063eb62df611461020857610070565b8063114de63d1461007557806355be04ad146100c65780638e02e1ae146100f1575b600080fd5b34801561008157600080fd5b506100c46004803603602081101561009857600080fd5b81019080803573ffffffffffffffffffffffffffffffffffffffff16906020019092919050505061021f565b005b3480156100d257600080fd5b506100db610366565b6040518082815260200191505060405180910390f35b3480156100fd57600080fd5b506101406004803603602081101561011457600080fd5b81019080803573ffffffffffffffffffffffffffffffffffffffff169060200190929190505050610370565b005b34801561014e57600080fd5b506101576104b7565b6040518082815260200191505060405180910390f35b34801561017957600080fd5b506101826104bd565b604051808273ffffffffffffffffffffffffffffffffffffffff1673ffffffffffffffffffffffffffffffffffffffff16815260200191505060405180910390f35b610206600480360360208110156101da57600080fd5b81019080803573ffffffffffffffffffffffffffffffffffffffff1690602001909291905050506104e7565b005b34801561021457600080fd5b5061021d61064d565b005b600360009054906101000a900473ffffffffffffffffffffffffffffffffffffffff1673ffffffffffffffffffffffffffffffffffffffff163373ffffffffffffffffffffffffffffffffffffffff16146102bd576040517f08c379a0000000000000000000000000000000000000000000000000000000008152600401808060200182810382526000815260200160200191505060405180910390fd5b600360149054906101000a900460ff1661031a576040517f08c379a0000000000000000000000000000000000000000000000000000000008152600401808060200182810382526000815260200160200191505060405180910390fd5b8073ffffffffffffffffffffffffffffffffffffffff166108fc6001549081150290604051600060405180830381858888f19350505050158015610362573d6000803e3d6000fd5b5050565b6000600154905090565b600260009054906101000a900473ffffffffffffffffffffffffffffffffffffffff1673ffffffffffffffffffffffffffffffffffffffff163373ffffffffffffffffffffffffffffffffffffffff161461040e576040517f08c379a0000000000000000000000000000000000000000000000000000000008152600401808060200182810382526000815260200160200191505060405180910390fd5b600360149054906101000a900460ff1661046b576040517f08c379a0000000000000000000000000000000000000000000000000000000008152600401808060200182810382526000815260200160200191505060405180910390fd5b8073ffffffffffffffffffffffffffffffffffffffff166108fc6001549081150290604051600060405180830381858888f193505050501580156104b3573d6000803e3d6000fd5b5050565b60005481565b6000600360009054906101000a900473ffffffffffffffffffffffffffffffffffffffff16905090565b600073ffffffffffffffffffffffffffffffffffffffff168173ffffffffffffffffffffffffffffffffffffffff16141561058a576040517f08c379a00000000000000000000000000000000000000000000000000000000081526004018080602001828103825260168152602001807f696e76616c69646520627579657220616464726573730000000000000000000081525060200191505060405180910390fd5b600054341015610602576040517f08c379a00000000000000000000000000000000000000000000000000000000081526004018080602001828103825260138152602001807f616d6f756e7420697320746f6f20736d616c6c0000000000000000000000000081525060200191505060405180910390fd5b80600360006101000a81548173ffffffffffffffffffffffffffffffffffffffff021916908373ffffffffffffffffffffffffffffffffffffffff1602179055503460018190555050565b600260009054906101000a900473ffffffffffffffffffffffffffffffffffffffff1673ffffffffffffffffffffffffffffffffffffffff163373ffffffffffffffffffffffffffffffffffffffff16146106eb576040517f08c379a0000000000000000000000000000000000000000000000000000000008152600401808060200182810382526000815260200160200191505060405180910390fd5b6000546001541015610748576040517f08c379a00000000000000000000000000000000000000000000000000000000081526004018080602001828103825260268152602001806107666026913960400191505060405180910390fd5b6001600360146101000a81548160ff02191690831515021790555056fe63616e277420616363657074206f666665722062656c6f7720696e697469616c207072696365a265627a7a72315820a4802247e78b97af4ee8e840979baea49bc16387ca4a0053771963935be6478a64736f6c634300050c0032",
  "source": "pragma solidity ^0.5.8;\n\ncontract SecureTransfer {\n\n    uint256 public price;\n    uint256 offer;\n    address seller;\n    address buyer;\n    bool sellerAccept;\n\n    constructor(uint256 _price) public {\n        price = _price;\n        offer = 0;\n        sellerAccept = false;\n        seller = msg.sender;\n    }\n\n    function makeDeposit(address _buyer) public payable {\n        require(_buyer != address(0), \"invalide buyer address\");\n        require(msg.value >= price, \"amount is too small\");\n        buyer = _buyer;\n        offer = msg.value;\n    }\n\n    function acceptOffer() public {\n        require(msg.sender == seller, \"\");\n        require(offer >= price, \"can't accept offer below initial price\");\n        sellerAccept = true;\n    }\n\n    function endTransactionBuyer(address payable beneficiary) public {\n        require(msg.sender == buyer, \"\");\n        require(sellerAccept, \"\");\n\n        beneficiary.transfer(offer);\n    }\n\n    function endTransaction(address payable beneficiary) public {\n        require(msg.sender == seller, \"\");\n        require(sellerAccept, \"\");\n        //require(enough time has passed);\n        beneficiary.transfer(offer);\n    }\n\n    function checkDeposit() public view returns(uint256) {\n        return offer;\n    }\n\n    function checkBuyer() public view returns(address) {\n        return buyer;\n    }\n}",
  "sourcePath": "/Users/sebastien/Documents/USI/Autumn19/DistributedSystems/DS-Solidity/sweet-vue/contracts/SecureTransfer.sol",
  "compiler": {
    "name": "solc",
    "version": "0.5.12+commit.7709ece9.Emscripten.clang"
  },
  "schemaVersion": "3.0.19",
  "updatedAt": "2019-12-10T19:03:49.400Z",
  "devdoc": {
    "methods": {}
  },
  "userdoc": {
    "methods": {}
  }
}