{
  "contractName": "SecureTransfer",
  "abi": [
    {
      "inputs": [],
      "payable": false,
      "stateMutability": "nonpayable",
      "type": "constructor"
    },
    {
      "constant": true,
      "inputs": [],
      "name": "buyer",
      "outputs": [
        {
          "internalType": "address",
          "name": "",
          "type": "address"
        }
      ],
      "payable": false,
      "stateMutability": "view",
      "type": "function"
    },
    {
      "constant": true,
      "inputs": [],
      "name": "offer",
      "outputs": [
        {
          "internalType": "uint256",
          "name": "",
          "type": "uint256"
        }
      ],
      "payable": false,
      "stateMutability": "view",
      "type": "function"
    },
    {
      "constant": true,
      "inputs": [],
      "name": "price",
      "outputs": [
        {
          "internalType": "uint256",
          "name": "",
          "type": "uint256"
        }
      ],
      "payable": false,
      "stateMutability": "view",
      "type": "function"
    },
    {
      "constant": true,
      "inputs": [],
      "name": "seller",
      "outputs": [
        {
          "internalType": "address",
          "name": "",
          "type": "address"
        }
      ],
      "payable": false,
      "stateMutability": "view",
      "type": "function"
    },
    {
      "constant": true,
      "inputs": [],
      "name": "sellerAccept",
      "outputs": [
        {
          "internalType": "bool",
          "name": "",
          "type": "bool"
        }
      ],
      "payable": false,
      "stateMutability": "view",
      "type": "function"
    },
    {
      "constant": false,
      "inputs": [
        {
          "internalType": "uint256",
          "name": "_price",
          "type": "uint256"
        }
      ],
      "name": "setPrice",
      "outputs": [],
      "payable": false,
      "stateMutability": "nonpayable",
      "type": "function"
    },
    {
      "constant": false,
      "inputs": [
        {
          "internalType": "address",
          "name": "_buyer",
          "type": "address"
        }
      ],
      "name": "makeDeposit",
      "outputs": [],
      "payable": true,
      "stateMutability": "payable",
      "type": "function"
    },
    {
      "constant": false,
      "inputs": [],
      "name": "acceptOffer",
      "outputs": [],
      "payable": false,
      "stateMutability": "nonpayable",
      "type": "function"
    },
    {
      "constant": false,
      "inputs": [
        {
          "internalType": "address payable",
          "name": "beneficiary",
          "type": "address"
        }
      ],
      "name": "endTransactionBuyer",
      "outputs": [],
      "payable": false,
      "stateMutability": "nonpayable",
      "type": "function"
    },
    {
      "constant": false,
      "inputs": [
        {
          "internalType": "address payable",
          "name": "beneficiary",
          "type": "address"
        }
      ],
      "name": "endTransaction",
      "outputs": [],
      "payable": false,
      "stateMutability": "nonpayable",
      "type": "function"
    }
  ],
  "bytecode": "0x608060405234801561001057600080fd5b506000808190555060006001819055506000600360146101000a81548160ff02191690831515021790555033600260006101000a81548173ffffffffffffffffffffffffffffffffffffffff021916908373ffffffffffffffffffffffffffffffffffffffff160217905550610cb38061008b6000396000f3fe6080604052600436106100915760003560e01c806391b7f5ed1161005957806391b7f5ed14610215578063a035b1fe14610250578063c028df061461027b578063ea727df4146102a6578063eb62df61146102ea57610091565b806308551a5314610096578063114de63d146100ed5780637150d8ae1461013e5780638d6afede146101955780638e02e1ae146101c4575b600080fd5b3480156100a257600080fd5b506100ab610301565b604051808273ffffffffffffffffffffffffffffffffffffffff1673ffffffffffffffffffffffffffffffffffffffff16815260200191505060405180910390f35b3480156100f957600080fd5b5061013c6004803603602081101561011057600080fd5b81019080803573ffffffffffffffffffffffffffffffffffffffff169060200190929190505050610327565b005b34801561014a57600080fd5b5061015361055e565b604051808273ffffffffffffffffffffffffffffffffffffffff1673ffffffffffffffffffffffffffffffffffffffff16815260200191505060405180910390f35b3480156101a157600080fd5b506101aa610584565b604051808215151515815260200191505060405180910390f35b3480156101d057600080fd5b50610213600480360360208110156101e757600080fd5b81019080803573ffffffffffffffffffffffffffffffffffffffff169060200190929190505050610597565b005b34801561022157600080fd5b5061024e6004803603602081101561023857600080fd5b810190808035906020019092919050505061070b565b005b34801561025c57600080fd5b506102656108b4565b6040518082815260200191505060405180910390f35b34801561028757600080fd5b506102906108ba565b6040518082815260200191505060405180910390f35b6102e8600480360360208110156102bc57600080fd5b81019080803573ffffffffffffffffffffffffffffffffffffffff1690602001909291905050506108c0565b005b3480156102f657600080fd5b506102ff610aa6565b005b600260009054906101000a900473ffffffffffffffffffffffffffffffffffffffff1681565b600360009054906101000a900473ffffffffffffffffffffffffffffffffffffffff1673ffffffffffffffffffffffffffffffffffffffff163373ffffffffffffffffffffffffffffffffffffffff16146103ea576040517f08c379a00000000000000000000000000000000000000000000000000000000081526004018080602001828103825260178152602001807f6f6e6c792062757965722063616e20757365207468697300000000000000000081525060200191505060405180910390fd5b8073ffffffffffffffffffffffffffffffffffffffff16600260009054906101000a900473ffffffffffffffffffffffffffffffffffffffff1673ffffffffffffffffffffffffffffffffffffffff16146104ad576040517f08c379a000000000000000000000000000000000000000000000000000000000815260040180806020018281038252601f8152602001807f62656e65666963696172792068617320746f206265203d3d2073656c6c65720081525060200191505060405180910390fd5b600360149054906101000a900460ff16610512576040517f08c379a0000000000000000000000000000000000000000000000000000000008152600401808060200182810382526024815260200180610c396024913960400191505060405180910390fd5b8073ffffffffffffffffffffffffffffffffffffffff166108fc6001549081150290604051600060405180830381858888f1935050505015801561055a573d6000803e3d6000fd5b5050565b600360009054906101000a900473ffffffffffffffffffffffffffffffffffffffff1681565b600360149054906101000a900460ff1681565b600260009054906101000a900473ffffffffffffffffffffffffffffffffffffffff1673ffffffffffffffffffffffffffffffffffffffff163373ffffffffffffffffffffffffffffffffffffffff161461065a576040517f08c379a00000000000000000000000000000000000000000000000000000000081526004018080602001828103825260188152602001807f6f6e6c792073656c6c65722063616e207573652074686973000000000000000081525060200191505060405180910390fd5b600360149054906101000a900460ff166106bf576040517f08c379a0000000000000000000000000000000000000000000000000000000008152600401808060200182810382526024815260200180610c396024913960400191505060405180910390fd5b8073ffffffffffffffffffffffffffffffffffffffff166108fc6001549081150290604051600060405180830381858888f19350505050158015610707573d6000803e3d6000fd5b5050565b600260009054906101000a900473ffffffffffffffffffffffffffffffffffffffff1673ffffffffffffffffffffffffffffffffffffffff163373ffffffffffffffffffffffffffffffffffffffff16146107ce576040517f08c379a000000000000000000000000000000000000000000000000000000000815260040180806020018281038252601f8152602001807f70726963652063616e206f6e6c79206265207365742062792073656c6c65720081525060200191505060405180910390fd5b60008111610844576040517f08c379a000000000000000000000000000000000000000000000000000000000815260040180806020018281038252601d8152602001807f70726963652073686f756c64206265206c6172676572207468616e203000000081525060200191505060405180910390fd5b600360149054906101000a900460ff16156108aa576040517f08c379a0000000000000000000000000000000000000000000000000000000008152600401808060200182810382526022815260200180610bf16022913960400191505060405180910390fd5b8060008190555050565b60005481565b60015481565b600073ffffffffffffffffffffffffffffffffffffffff168173ffffffffffffffffffffffffffffffffffffffff161415610963576040517f08c379a00000000000000000000000000000000000000000000000000000000081526004018080602001828103825260168152602001807f696e76616c69646520627579657220616464726573730000000000000000000081525060200191505060405180910390fd5b6000805411801561097657506000543410155b8015610983575060015434115b6109f5576040517f08c379a00000000000000000000000000000000000000000000000000000000081526004018080602001828103825260138152602001807f616d6f756e7420697320746f6f20736d616c6c0000000000000000000000000081525060200191505060405180910390fd5b600360149054906101000a900460ff1615610a5b576040517f08c379a0000000000000000000000000000000000000000000000000000000008152600401808060200182810382526022815260200180610c5d6022913960400191505060405180910390fd5b80600360006101000a81548173ffffffffffffffffffffffffffffffffffffffff021916908373ffffffffffffffffffffffffffffffffffffffff1602179055503460018190555050565b600260009054906101000a900473ffffffffffffffffffffffffffffffffffffffff1673ffffffffffffffffffffffffffffffffffffffff163373ffffffffffffffffffffffffffffffffffffffff1614610b69576040517f08c379a000000000000000000000000000000000000000000000000000000000815260040180806020018281038252601f8152602001807f6f6e6c792073656c6c65722063616e2061636365707420616e206f666665720081525060200191505060405180910390fd5b60008054118015610b7e575060005460015410155b610bd3576040517f08c379a0000000000000000000000000000000000000000000000000000000008152600401808060200182810382526026815260200180610c136026913960400191505060405180910390fd5b6001600360146101000a81548160ff02191690831515021790555056fe616e206f666665722068617320616c7265616479206265656e20616363657074656463616e277420616363657074206f666665722062656c6f7720696e697469616c20707269636573656c6c65722068617320746f2061636365707420746865206f66666572206669727374416e206f666665722068617320616c7265616479206265656e206163636570746564a265627a7a72315820aa9ddcc18f3e9b126b5297e7d5664325af636b6b77b5060577c5d054d7d38ae264736f6c634300050c0032",
  "source": "pragma solidity >=0.4.21 <0.6.0;\n\ncontract SecureTransfer {\n\n    uint public price;\n    uint public offer;\n    address public seller;\n    address public buyer;\n    bool public sellerAccept;\n\n    constructor() public {\n        price = 0;\n        offer = 0;\n        sellerAccept = false;\n        seller = msg.sender;\n    }\n\n    function setPrice(uint _price) public {\n        require(msg.sender == seller, \"price can only be set by seller\");\n        require(_price > 0, \"price should be larger than 0\");\n        require(!sellerAccept, \"an offer has already been accepted\");\n        price = _price;\n    }\n\n    function makeDeposit(address _buyer) public payable {\n        require(_buyer != address(0), \"invalide buyer address\");\n        require(price > 0 && msg.value >= price && msg.value > offer, \"amount is too small\");\n        require(!sellerAccept, \"An offer has already been accepted\");\n        buyer = _buyer;\n        offer = msg.value;\n    }\n\n    function acceptOffer() public {\n        require(msg.sender == seller, \"only seller can accept an offer\");\n        require(price > 0 && offer >= price, \"can't accept offer below initial price\");\n        sellerAccept = true;\n    }\n\n    function endTransactionBuyer(address payable beneficiary) public {\n        require(msg.sender == buyer, \"only buyer can use this\");\n        require(seller == beneficiary, \"beneficiary has to be == seller\");\n        require(sellerAccept, \"seller has to accept the offer first\");\n\n        beneficiary.transfer(offer);\n    }\n\n    function endTransaction(address payable beneficiary) public {\n        require(msg.sender == seller, \"only seller can use this\");\n        require(sellerAccept, \"seller has to accept the offer first\");\n        //require(enough time has passed, \"has to wait longer\");\n        beneficiary.transfer(offer);\n    }\n\n    // function checkDeposit() public view returns (uint) {\n    //     return offer;\n    // }\n\n    // function checkBuyer() public view returns (address) {\n    //     return buyer;\n    // }\n}",
  "sourcePath": "/Users/sebastien/Documents/USI/Autumn19/DistributedSystems/DS-Solidity/sweet-vue/contracts/SecureTransfer.sol",
  "compiler": {
    "name": "solc",
    "version": "0.5.12+commit.7709ece9.Emscripten.clang"
  },
  "schemaVersion": "3.0.19",
  "updatedAt": "2019-12-13T16:31:34.728Z",
  "networkType": "ethereum",
  "devdoc": {
    "methods": {}
  },
  "userdoc": {
    "methods": {}
  }
}