{
  "contractName": "SimpleStorage",
  "abi": [
    {
      "anonymous": false,
      "inputs": [
        {
          "indexed": false,
          "internalType": "string",
          "name": "_message",
          "type": "string"
        }
      ],
      "name": "StorageSet",
      "type": "event"
    },
    {
      "constant": false,
      "inputs": [
        {
          "internalType": "uint256",
          "name": "x",
          "type": "uint256"
        }
      ],
      "name": "set",
      "outputs": [],
      "payable": false,
      "stateMutability": "nonpayable",
      "type": "function"
    },
    {
      "constant": true,
      "inputs": [],
      "name": "get_data",
      "outputs": [
        {
          "internalType": "uint256",
          "name": "",
          "type": "uint256"
        }
      ],
      "payable": false,
      "stateMutability": "view",
      "type": "function"
    }
  ],
  "bytecode": "0x608060405234801561001057600080fd5b5061012e806100206000396000f3fe6080604052348015600f57600080fd5b506004361060325760003560e01c806350bf8b0d14603757806360fe47b1146053575b600080fd5b603d607e565b6040518082815260200191505060405180910390f35b607c60048036036020811015606757600080fd5b81019080803590602001909291905050506087565b005b60008054905090565b806000819055507f60cdc157ca4737a5d39a0e107532616e7bf6946e615228812c7f9bc9f81797a66040518080602001828103825260198152602001807f446174612073746f726564207375636365737366756c6c79210000000000000081525060200191505060405180910390a15056fea265627a7a723158202315b9defa9f0cb2d5b9f2f41232748072a73c90462a574929f48058fbaaf93964736f6c634300050c0032",
  "source": "pragma solidity >=0.4.21 <0.6.0;\n\ncontract SimpleStorage {\n    event StorageSet(string _message);\n\n    uint storedData;\n\n    function set(uint x) public {\n        storedData = x;\n\n        emit StorageSet(\"Data stored successfully!\");\n    }\n\n    function get_data() external view returns (uint) {\n        return storedData;\n    }\n}\n",
  "sourcePath": "/Users/sebastien/Documents/USI/Autumn19/DistributedSystems/DS-Solidity/sweet-vue/contracts/SimpleStorage.sol",
  "compiler": {
    "name": "solc",
    "version": "0.5.12+commit.7709ece9.Emscripten.clang"
  },
  "schemaVersion": "3.0.19",
  "updatedAt": "2019-12-13T18:38:30.809Z",
  "networkType": "ethereum",
  "devdoc": {
    "methods": {}
  },
  "userdoc": {
    "methods": {}
  }
}